:1000000000800020BD010000610602001D06020004
:100010001D0602001D0602001D0602001D0602004C
:100020001D0602001D0602001D06020061060200F8
:10003000610602001D0602008D1B0200911B0200DA
:10004000610602006106020061060200610602000C
:1000500061060200610602006106020061060200FC
:1000600061060200610602006106020061060200EC
:1000700061060200610602006106020061060200DC
:1000800061060200610602006106020061060200CC
:1000900061060200610602006106020061060200BC
:1000A00061060200610602006106020061060200AC
:1000B000610602006106020061060200610602009C
:1000C000610602006106020061060200610602008C
:1000D000610602006106020061060200610602007C
:1000E000610602006106020061060200610602006C
:1000F000610602006106020061060200610602005C
:10010000610602006106020061060200610602004B
:10011000610602006106020061060200610602003B
:10012000610602006106020061060200610602002B
:10013000610602006106020061060200E1EF0100B3
:10014000610602006106020061060200610602000B
:10015000F901020015020200310202004D02020004
:10016000610602004D0B02006106020061060200FA
:1001700061060200610602006106020061060200DB
:1001800061060200610602006106020061060200CB
:1001900061060200610602006106020061060200BB
:1001A00061060200610602006106020061060200AB
:1001B000610602006106020061060200574B4CF224
:1001C000205210B5DA814DF62812DA8100BF00BF47
:1001D00020F04AFA524B4FF010621A63514A9A6368
:1001E000514ADA63514A136913F4807303D153619E
:1001F0004FF4A85313614E4B9A78110703D59A78A0
:1002000042F008029A704B4B4B482A221A704B4B13
:10021000DA1C121AC11E22F00302994288BF002282
:10022000474920F027F9474B4748DA1C121AC11EEC
:1002300022F00302994288BF0022002124F0B2FA82
:10024000424943484FF4DE7220F014F9414B424AD0
:10025000802103F8011B9342FBD14FF0E0233C4A7D
:10026000C3F8082D3D4B8A221A70A3F5805324222F
:100270005A70A0221A709A799207FCD59A79D406FE
:10028000FCD4374B9A7902F00C02082AFAD10322E7
:100290001A7146225A719A799006FCD5304A9379A0
:1002A0005906FCD51E4B4FF082715964092199649F
:1002B00020211170917901F00C010C29FAD1294A01
:1002C0005A604FF0E023284A5A6100229A610722BF
:1002D0001A61264AC3F8202D62B620F07BFA134B30
:1002E0005B69DA0705D5224820F068FA214B224ADB
:1002F000DA61224B1B785B0609D51E4C1E4BE26966
:100300009A4204D11A4820F059FA0023E36120F000
:10031000B1F924F005FB20F0A5F8FEE70020054028
:1003200000800440823F04000100002B00D0034005
:1003300000D0074000E00740308EFF1FACC2FF1F17
:10034000E86C030068240020B0C2FF1F000000001A
:100350000084FF1F00E400E05FE400E0005006407E
:1003600000400640C0100500BFD40100000020205E
:1003700083C2CA6900E00340A5C3945A00F0074055
:10038000FFFFFFFFFFFFFFFFFFFFFFFFFFFFFFFF7D
:10039000FFFFFFFFFFFFFFFFFFFFFFFFFFFFFFFF6D
:1003A000FFFFFFFFFFFFFFFFFFFFFFFFFFFFFFFF5D
:1003B000FFFFFFFFFFFFFFFFFFFFFFFFFFFFFFFF4D
:1003C000FFFFFFFFFFFFFFFFFFFFFFFFFFFFFFFF3D
:1003D000FFFFFFFFFFFFFFFFFFFFFFFFFFFFFFFF2D
:1003E000FFFFFFFFFFFFFFFFFFFFFFFFFFFFFFFF1D
:1003F000FFFFFFFFFFFFFFFFFFFFFFFFFFFFFFFF0D
:10040000FFFFFFFFFFFFFFFFFFFFFFFFDEF9FFFF23
:100410000548064B1B1AD90F01EBA301491002D066
:10042000034B03B118477047ACC2FF1FACC2FF1F9C
:100430000000000008B5054B1BB105490548AFF3A6
:100440000080BDE80840FFF7E3BF00BF00000000E8
:10045000B0C2FF1FE06C0300064B074A1B68074849
:1004600019684FF0010C82F800C00861044A1B793A
:10047000D377704754C4FF1F40C4FF1F0082FF1F83
:100480000080004038B54FF0FF32054600211B4880
:100490001B4C1EF0D9FC19484FF0FF3210211EF002
:1004A000DDFC16484FF0FF3204211EF0E1FC13483A
:1004B0004FF0FF3203211EF0E5FC10484FF0FF32F1
:1004C00004211EF0E9FC0F490F48104B0560002283
:1004D0000A604A608A60CA6022606260A260E2606C
:1004E00003F1200123F8022B8B42FBD1BDE83840F9
:1004F00002484FF0FF311EF0D9BC00BFCCC2FF1F35
:1005000030C4FF1F44C4FF1FC8C2FF1F0082FF1F6B
:10051000F8B53B4F3B4C386801211FF021FD3A688C
:1005200039491368394819603949596010211861EF
:100530000025D9830226D9826FF01F01DD60996101
:100540009E609E8213793348DFF8CCE003F180434C
:1005500003F50433A8221D701A7039680A68938B5A
:100560009BB243F008039383938B9BB233439383F3
:100570000A79531103F1382340330121B34002F1CA
:10058000100C02F01F0201FA02F240F82CE01A608F
:1005900020681FF0E5FC22683968136804209D611B
:1005A0009D821E4D1D60D883D8821D4818611D484C
:1005B000586008689E606FF00705DD601379C58B91
:1005C0005A02ADB225F4F05502F4F0522A4342F437
:1005D0000042C283C28B92B2C282828B1B0292B251
:1005E00022F4786203F47063134343F0200383839F
:1005F0000D4B0A79DA7622681279DA76F8BD00BFF7
:1006000054C4FF1F58C4FF1F10B003400082FF1FD7
:10061000000001010084FF1F59040000A8A402008B
:1006200000B003400200010100800040884207DA68
:10063000044B1A68091A4FF44003B3FBF1F313811A
:10064000704700BFC8C2FF1F08B507481EF0D0FBA7
:10065000082020F03BF8054B024608201A6020F0E5
:1006600035F8034B186008BDCCC2FF1F54C4FF1FF0
:1006700058C4FF1F00EB40030E4AD90012F8333074
:10068000FF2B00D07047012310B55354044600F0EF
:1006900025FB094B16211A686FF0010C11FB04C1F0
:1006A00003460A44163033F8021F22F8021F834221
:1006B000F9D110BDB8C4FF1F64C4FF1F08B500F016
:1006C0000DFB007808BD00BF032801D8FFF7D2BF9B
:1006D000704700BF03281ED8124B134910B50446BB
:1006E000186804EB840304EB430301EB430100EBC4
:1006F0004300162223F0DAFF04EB44030B4AD80030
:1007000012F83330FF2B4FEA440105D0012B03D000
:100710000023135410BD70472144FF2302F83130E9
:1007200010BD00BF64C4FF1FE8D5FF1FB8C4FF1F82
:1007300003280FD810B400EB4000074C01EB8003F6
:1007400004EB43030A295A8004BFFF2304F8303026
:1007500010BC7047704700BFB8C4FF1FF8B5094C04
:10076000094D04F16007002604F8026C2946204672
:10077000162218341FF07EFEBC4205F11605F3D197
:10078000F8BD00BFBAC4FF1FE8D5FF1F70B5104EFB
:10079000104C0025284600F0A1FA03784BB1FF2B3E
:1007A00012D00135042D06F1180604F11604F1D11A
:1007B00070BD33703246A4F1160333F8021B22F8E1
:1007C000021FA342F9D1ECE7E8B2FFF753FFE8E7D5
:1007D000B8C4FF1FFED5FF1F014B185C704700BF58
:1007E0005CC4FF1F03299CBF014B5854704700BFD6
:1007F0005CC4FF1F014B1860704700BF5CC4FF1F43
:10080000064A92F801C013789178D07843EA0C2315
:1008100043EA014343EA0060704700BF5CC4FF1F26
:1008200010B429490A78C0F57F40FF30130432B371
:10083000264A194643F0004343F010035363D36A3A
:1008400003F47043B3F5405FF9D883B21F4A0B43FA
:1008500043F080535363D36A03F47043B3F5405FAE
:10086000F9D81A4AD36A13F0F00FFBD0936B174AEA
:10087000D36A13F0F00FFBD0936B10BC7047144C8D
:1008800022681370114A4FF08053D36210235363D0
:10089000D36A03F47043B3F5405FF9D809780B04C9
:1008A00081B9216880B20B7040F0C0504FF0805386
:1008B0000649D3625063CB6ADB00FCD52368012272
:1008C0001A70CEE71946C0E77C1E002000C0024027
:1008D000801E002010B429490A78C0F57F40FF30FF
:1008E000130432B3264A194643F0004343F012037F
:1008F0005363D36A03F47043B3F5405FF9D883B20E
:100900001F4A0B4343F080535363D36A03F470438D
:10091000B3F5405FF9D81A4AD36A13F0F00FFBD051
:10092000936B174AD36A13F0F00FFBD0936B10BC94
:100930007047144C22681370114A4FF08053D362F1
:1009400012235363D36A03F47043B3F5405FF9D8BD
:1009500009780B0481B9216880B20B7040F0C05057
:100960004FF080530649D3625063CB6ADB00FCD55D
:10097000236801221A70CEE71946C0E77C1E0020CA
:1009800000C00240801E002010B429490A78C0F53A
:100990007F40FF30130432B3264A194643F0004328
:1009A00043F014035363D36A03F47043B3F5405F19
:1009B000F9D883B21F4A0B4343F080535363D36A81
:1009C00003F47043B3F5405FF9D81A4AD36A13F0C1
:1009D000F00FFBD0936B174AD36A13F0F00FFBD0E4
:1009E000936B10BC7047144C22681370114A4FF07F
:1009F0008053D36214235363D36A03F47043B3F573
:100A0000405FF9D809780B0481B9216880B20B7076
:100A100040F0C0504FF080530649D3625063CB6A18
:100A2000DB00FCD5236801221A70CEE71946C0E727
:100A30007C1E002000C00240801E002010B4294906
:100A40000A78C0F57F40FF30130432B3264A1946B6
:100A500043F0004343F016035363D36A03F4704337
:100A6000B3F5405FF9D883B21F4A0B4343F080537C
:100A70005363D36A03F47043B3F5405FF9D81A4A5D
:100A8000D36A13F0F00FFBD0936B174AD36A13F0BD
:100A9000F00FFBD0936B10BC7047144C226813709E
:100AA000114A4FF08053D36216235363D36A03F481
:100AB0007043B3F5405FF9D809780B0481B9216818
:100AC00080B20B7040F0C0504FF080530649D362A3
:100AD0005063CB6ADB00FCD5236801221A70CEE795
:100AE0001946C0E77C1E002000C00240801E002086
:100AF000464B70B5464D474C5A6D196D286000261F
:100B000026604FF4A070012481F8804210601168C3
:100B1000414D21F020011160DA6C9B6C83F880421A
:100B20001060136823F020031360214609201FF092
:100B3000A3FE4022314639482E6023F033FE384967
:100B4000384BCA6B384842F48052CA63374A1A603D
:100B50004FF03842DA6001F540514FF078421A61A7
:100B60004FF400720A61047031481860314B1878F4
:100B7000C0074DBF30494FF410728A618A601A78FD
:100B8000920737D42D4A4FF40071D1611B785B076F
:100B900037D42A4B4FF410725A61294C4FF6FF702C
:100BA00080F3100020606060A060E060FFF738FE16
:100BB0006068FFF78FFEA068FFF7E6FEE068FFF7CA
:100BC0003DFF2B68154A216822F8131003F108062F
:100BD00003F1100003F11801013303F007032B6048
:100BE000636822F81630A568E36822F8105022F8EE
:100BF000113070BD104A4FF40071D1601B785B0753
:100C0000C7D50D4B4FF400725A60C6E7646303000A
:100C100064C4FF1F5CC4FF1F60C4FF1F78C4FF1FB4
:100C20000080044000C002407C1E002001401F8064
:100C3000000C1F80841E002000C0044000B004404F
:100C400068C4FF1F10B4154C154BE26B154942F4F4
:100C50008052E2634FF41070134A886148611A6051
:100C60001A6842F440621A601A68510407D54FF0BE
:100C700038414FF07842D96010BC1A61704742F495
:100C800080414FF0384441F001014FF07840196045
:100C9000DC60186110BC1A60704700BF008004401F
:100CA00000C0024000B0044000001F801FF064BB81
:100CB00030B5084D05F1600E074C0FCCAC46ACE8E2
:100CC0000F0094E80300183575458CE80300F3D154
:100CD00030BD00BFB8C4FF1FB0A40200024B00EB40
:100CE000400003EBC0007047B8C4FF1F70B5064C4E
:100CF000064E04F1A00505222046314614441FF09B
:100D0000B9FBAC42F7D170BD18C5FF1F08A50200A2
:100D100000EBC100C3B21F2B02489CBF03EB83034F
:100D2000C018704718C5FF1F70B5264C2649274DBF
:100D300082B04FF47A730C2202260093A2603C2307
:100D40007822204666601FF0D3F82149666016229B
:100D50000B68A260A3FB05234A68A2FB0502896811
:100D6000A1FB0510642100901A4803FB01F1A0FBD0
:100D7000010149090191204617491FF0B9F81749A7
:100D8000666020234A68A360A2FB05320B68A3FBC0
:100D900005038968A1FB05151149009520461FF040
:100DA000A7F8104B104A1B681268104966602A2089
:100DB000A06020461FF09CF834236660A36002B058
:100DC00070BD00BF081E002010A5020022222202D2
:100DD000B8C5FF1F8988888820A50200D8C5FF1FD5
:100DE00038A50200C4C5FF1FD4C5FF1F48A50200D7
:100DF0002DE9F041DFF89080244F254ED8F80030DF
:100E0000244C198832683B680225A1EB1222204647
:100E10004FF00C0C2049C4F808C01B0A65601FF095
:100E200067F8D8F80030726859887B686560A1EB74
:100E3000122220464FF0160C1849C4F808C01B0AAD
:100E40001FF056F8D8F80030B2689988BB68656022
:100E5000A1EB1222204612491B0A4FF0200CC4F8C5
:100E600008C01FF045F8D8F80020FB68D188F26868
:100E700065602A20A060A1EB122220460949BDE846
:100E8000F0411B0A1FF034B8C8C2FF1F30C4FF1F57
:100E900044C4FF1F081E002058A5020064A50200DC
:100EA00070A502007CA5020030B5144D83B000226D
:100EB000402011460090802328461EF0D7FC0022D7
:100EC0000C2328460E496A60AB601EF0E1FF0D4816
:100ED00002211623696042680B49AB60A2FB013214
:100EE0000368A3FB01438068A0FB01040749009449
:100EF00028461EF0FDFF03B030BD00BF081E0020D5
:100F000088A50200C8C5FF1F222222028CA502006C
:100F10004FF0E0211748D1F8FC2D174B42F08072BA
:100F200010B4C1F8FC2D0168D3F8C420D3F8C04038
:100F300041F0010101604FF0010C4FF4A07084F802
:100F400080C21060116821F020011160D3F8CC201C
:100F5000D3F8C830094983F880C210601368202490
:100F600023F020034FF4002013608C6010BC8864D1
:100F7000704700BF001000E06463030000F00F4002
:100F80002DE9F041DFF80481414E424F82B0044622
:100F90004546D6F80828D6F80C389B1A023367D095
:100FA000D6F8083803F0010303F5007356F8231050
:100FB000002964D0374801221EF014FAA5EB08027C
:100FC000D2104FF0020C0132032333493148C7F8E5
:100FD00004C0C7F808C01EF08BFF29682D481EF01A
:100FE00057FF6B6898472B481EF00EFAD6F8083862
:100FF0000133C6F80838D4F8E020D4F8E4309A4237
:10100000C7D00021D4F8E43003F00F0204EBC20291
:101010000133B2F86220C4F8E430082A17D0042A59
:101020001ED0D4F8E020D4F8E4309A42EAD1002966
:10103000AFD00023194AC4F8E430C4F8E030136894
:101040000193019BC4F8EC3002B0BDE8F081D4F804
:10105000E030D4F8E4209A424FF00101D2D1E8E721
:10106000AB681BB1EB680835002BDAD1074DD8E728
:10107000D4F8E020D4F8E4309A42C2D189E7D4F819
:10108000E030D4F8E4209A42BBD182E7C0A5020048
:10109000F0150020081E0020A0A50200881E0020D8
:1010A00010B40848084C094A00234FF0FF31236070
:1010B0006160A360036010BC416083601360516095
:1010C00093607047D8C5FF1FB8C5FF1FC8C5FF1F75
:1010D0002DE9F0410023194C194D1A49212B04F137
:1010E0001806984640F2031718464FF0020205EB27
:1010F000C30C06D855F833E0DCF804308EF8808253
:101100001F601FF0E7FAB4420DD0E16814F8083F01
:10111000212B18464FF0020205EBC30CEAD91FF051
:10112000D9FAB442F1D1084A0849002313600B6090
:1011300053609360D360BDE8F08100BFE0A502007A
:1011400064630300158FFF1FE8C5FF1FE4C5FF1F81
:10115000064BDA699969002040F2031381F8800296
:1011600013600349022203201FF0B4BA6463030032
:10117000398FFF1F0D4B1A6812B100221A6001222D
:10118000596819B10021596042F00202996819B1F9
:101190000021996042F00402D96819B10021D96098
:1011A00042F00802024B1A60704700BFE8C5FF1FFB
:1011B000E4C5FF1F244B10B4D3F8D400D3F8D040BB
:1011C00001214FF4A07284F880120260046824F0B8
:1011D00020040460D3F8DC00D3F8D84084F88012EF
:1011E0000260046824F020040460D3F8E400D3F81B
:1011F000E04084F880120260046824F02004046057
:10120000D3F8EC00D3F8E84084F880120260046858
:1012100024F020040460D3F8F400D3F8F04084F8FC
:1012200080120260046824F020040460D3F8FC00FB
:10123000D3F8F83083F880120260036810BC23F002
:1012400020030360704700BF646303000A4B043847
:10125000C9B253F8203039B10849DBB2012251F844
:10126000333083F8802070470449DBB2012251F803
:10127000333083F800217047AC9DFF1F6463030087
:10128000002301214FF47062018042844362836233
:1012900003F1800220F8023F93B2B3F5006FF7D15B
:1012A000704700BF002A14BF4FF0010C4FF0000C34
:1012B00080F800C012D000B500F1200C32F813E025
:1012C0000246002322F8023F734462459BB2F9D1E3
:1012D0000123437080F823105DF804FB704700BFC2
:1012E00030B586460078002867D09EF801303BB9BB
:1012F000DEF824308B4203DCDEF828308B425DDAE6
:101300000DB20EF106020D2307E032F91C40AC428B
:1013100003F1FF33D4BF821C634623F001004FEA80
:10132000630C002B1044A3EB0C03EEDC0EF1020364
:10133000A2EB030C4FEA6C02023A4CF34F0C12B2D0
:1013400094453EDB4FF0FF354FF400740EEB420343
:10135000501CB3F90230CB1A002BB8BF5B421BB252
:10136000A342B8BF154602B2B8BF1C469445EDDA99
:101370000EEB45033EF81510B3F902200923C2EB2A
:10138000C20211FB03210EEB45030911B3F904302E
:10139000CEF8241003EBC30313441B11002DCEF829
:1013A000283023DB9EF92300A842A8BF284640B27C
:1013B00000238EF822008EF8013030BD9EF9220005
:1013C00030BDBEF900103EF8022CBEF802300920F4
:1013D000C1EBC10112FB001213FB001312111B1110
:1013E000CEF82420CEF828300020E1E70020DFE707
:1013F0002DE9F047DFF870A01C4C1D4F1D4D1E4E0F
:10140000DFF878804FF00A090EE022F055FA4146E5
:1014100022F0A6FA824620F08FFC0446504620F0C7
:10142000BDFC09F1010982462946204622F098FABE
:1014300022F072FC07EBC904034644F8503C2946ED
:10144000504622F08DFA22F067FC0346A6FB0920E5
:10145000C00800EB4000B9F1150FA9EB800044F87B
:101460004C3CD2D1BDE8F087000080BF2EDE4C326C
:1014700010C8FF1F0000E041ABAAAAAA920A063FCB
:101480002DE9F041654C2378032B2ED8DFE803F0DB
:101490009263022F624A634B1568634F013505F072
:1014A0000705C5F108067600324607EB45011846E8
:1014B0001EF0E0FF4FEA45083044002D40F0A880C0
:1014C000584A002102F1100332F8020B9A420144FB
:1014D000FAD1564B56481B686FEAD1018033C1F3ED
:1014E000C421032220F813102270BDE8F0814C4A79
:1014F0004C4B15684F4F013505F00705C5F108063F
:101500007600324607EB450118461EF0B3FF4FEA5E
:10151000450830441DB1424639461EF0ABFF414AF2
:10152000002102F1100332F8020B9A420144FAD171
:101530003E4A3F4813686FEAD10103F1C005C1F389
:10154000C421013320F8151003F03F03002121705E
:101550001360BDE8F081324A324B1568364F0135D1
:1015600005F00705C5F108067600324607EB450190
:1015700018461EF07FFF4FEA450830441DB1424631
:1015800039461EF077FF274A002102F1100332F896
:10159000020B9A420144FAD1244B25481B686FEA9A
:1015A000D1014033C1F3C421022220F8131022706C
:1015B000BDE8F0811A4A1B4B1568204F013505F034
:1015C0000705C5F108067600324607EB45011846C7
:1015D0001EF050FF4FEA450830441DB142463946DF
:1015E0001EF048FF0F4A002102F1100332F8020BEF
:1015F0009A420144FAD10D4B0D4A18686FEAD101A5
:10160000C1F3C421012322F810102370BDE8F0813A
:10161000424639461EF02EFF52E700BF0CC6FF1FA0
:1016200060C4FF1FF8C5FF1F98C4FF1F08C6FF1F37
:1016300010C6FF1FA8C4FF1F88C4FF1F78C4FF1F68
:101640002DE9F8432D4E2E4D2E4CFFF719FF0021AA
:1016500001203368276801330B4403F03F0303F193
:10166000400E35F813204FEAE20801EBC81802F0EB
:10167000070217F8089000FA02F242EA090207F896
:10168000082035F81E20D4F800E001F1400CD710F6
:101690000CEBC71702F007021EF8079000FA02F2DF
:1016A00042EA09020EF8072003F1800803F1C00E98
:1016B00035F8182023682032D71001EBC71702F045
:1016C000070213F8078000FA02F242EA0802DA552C
:1016D00035F81E3022682033DF100CEBC71C03F0F6
:1016E000070312F80C70013100FA03F33B433F2962
:1016F00002F80C30ADD1BDE8F88300BF08C6FF1F6B
:1017000010C6FF1F081E00202DE9F041654C23780C
:10171000032B2ED8DFE803F09263022F624A634B5B
:101720001568634F013505F00705C5F10806760019
:10173000324607EB450118461EF09CFE4FEA45086D
:101740003044002D40F0A880584A002102F11003D7
:1017500032F8020B9A420144FAD1564B56481B68A4
:101760006FEAD1018033C1F38521032220F81310E1
:101770002270BDE8F0814C4A4C4B15684F4F013543
:1017800005F00705C5F108067600324607EB45016E
:1017900018461EF06FFE4FEA450830441DB1424620
:1017A00039461EF067FE414A002102F1100332F86B
:1017B000020B9A420144FAD13E4A3F4813686FEA4D
:1017C000D10103F1C005C1F38521013320F81510C3
:1017D00003F03F03002121701360BDE8F081324A1D
:1017E000324B1568364F013505F00705C5F108067F
:1017F0007600324607EB450118461EF03BFE4FEAE5
:10180000450830441DB1424639461EF033FE274A92
:10181000002102F1100332F8020B9A420144FAD17E
:10182000244B25481B686FEAD1014033C1F3852161
:10183000022220F813102270BDE8F0811A4A1B4BD7
:101840001568204F013505F00705C5F1080676003B
:10185000324607EB450118461EF00CFE4FEA4508DC
:1018600030441DB1424639461EF004FE0F4A0021A5
:1018700002F1100332F8020B9A420144FAD10D4BE7
:101880000D4A18686FEAD101C1F38521012322F8BE
:1018900010102370BDE8F081424639461EF0EAFD83
:1018A00052E700BF0CC6FF1F60C4FF1FF8C5FF1F33
:1018B00098C4FF1F08C6FF1F10C6FF1FA8C4FF1F44
:1018C00088C4FF1F78C4FF1F2DE9F041FFF71CFFFC
:1018D0001B4D1C481C4C00214FF0010C2B68266846
:1018E00001330B4403F03F0303F1400230F813E0EF
:1018F00030F812204FEAE2080EEBC81E02F0070291
:1019000016F80E800CFA02F242EA080206F80E20DF
:1019100003F1C007803330F8172030F81330266801
:10192000D710403303EBC71302F00702F75C0CFA41
:1019300002F201313A433F29F254CFD1BDE8F081A0
:1019400008C6FF1F10C6FF1F081E002030B5094D36
:1019500005F1A00E084C0FCCAC46ACE80F000FCC44
:10196000ACE80F0094E80300283575458CE80300C7
:10197000F0D130BDB8C9FF1F14B202000328D2BF96
:10198000034B044B043800EB800003EBC0007047AE
:10199000B8C9FF1FECB10200704700BF0178074BC8
:1019A000027953F8313093F8003243EA4203DBB254
:1019B000DA43037102F00100704700BF6463030063
:1019C0002DE9F0410022284B026082B01B68019390
:1019D000019B264EC0F8EC3046F2A8120446426045
:1019E000054600F12008FF270520C0B2A8600221AB
:1019F00008351EF067FF45452F7102D056F8040FD9
:101A0000F3E700251022294604F1280022F0CAFE3F
:101A100002211020A563A5871EF054FF4FF6FF7624
:101A200002210F201EF04EFF02211620A4F8405084
:101A30006564A564A4F84C601EF044FF02211520E3
:101A40001EF040FFC4F8E850A4F85050C4F8E45029
:101A50006565A565A4F85C60C4F8E050C4F8EC5076
:101A600002B0BDE8F08100BF881E0020C0CC02009B
:101A700001F00103C1F3400180F8413080F85110BA
:101A8000704700BF094B82B01B6801934FF47A7214
:101A900002FB01F1019BC0F8EC30B1F5FA6F38BFE1
:101AA0004FF4FA61416002B0704700BF881E002009
:101AB00080F83D10704700BF2DE9F043D0F8E030CA
:101AC000D0F8E4209A4283B004463BD0344F894694
:101AD0006D464FF0000801260FE05ABB9DF800004C
:101AE000022840D0032847D0012840D03E60D4F8D7
:101AF000E020D4F8E4309A4224D0D4F8E420B4F8BA
:101B00003AC002F00F0304EBC303603393E8030011
:101B100085E80300BDF8023001321CEA030FC4F867
:101B2000E42094F83C20D8D02CEA030CA4F83AC066
:101B3000002ADCD0D4F8E020D4F8E43084F83C80EB
:101B40009A42DAD1174BD4F8EC101B680093009B33
:101B500062685B1A9A4214D2012384F83C30002058
:101B600003B0BDE8F083012B12D0082BF8D0D9F8D0
:101B7000283028469847B9E7D9F82C3028469847A6
:101B8000B4E794F83C0080F0010003B0BDE8F083B6
:101B900094F83D20002AA9D184F83C30A6E700BF84
:101BA000C49DFF1F881E00202DE9F04F704B714D22
:101BB0001B68714EDFF8C4B187B004460493049BE0
:101BC00003938A46228F6A4B1968059102F003033A
:101BD000A3F1030312F0040FB3FA83F314BF4FF021
:101BE00003084FF001085B0912F0080FDDF81490AC
:101BF0008AF8003018BF4FF00208D5F80828D5F849
:101C00000C389B1A0233F8D0D5F8083803F00103DA
:101C100003F5007355F823100029EED03046012259
:101C20001DF0E0FB0020FEF7D7FD28B90120FEF7EC
:101C3000D3FD002800F0898080230C22002130464B
:101C40001DF07EFD0227594630467760B7601EF0D2
:101C50001FF911234A4977603046B3601EF018F926
:101C6000B8F1030F61D01D23464977603046B36059
:101C70001EF00EF9B8F1020F4ED09AF80030022192
:101C800029227160B260002B41D13523B360039BE0
:101C90003D490222A9EB0307304672601EF0F8F8B6
:101CA000B7F57A7F31D3039B03F6E833A3EB09033F
:101CB000C3F314130222009200213E2230461DF08D
:101CC000A7FBD4F8E030D4F8E4209A420AD0D4F844
:101CD000E4300133C4F8E430D4F8E020D4F8E43040
:101CE0009A42F4D130461DF08FFBD5F8083840F603
:101CF000E73201339742C5F808387FF663AF238F88
:101D00006387404607B0BDE8F08F8023D2E71F49C4
:101D100030461EF0BDF8B8E70C2300931B22802349
:101D2000414630461DF06EFCA7E70C230093394670
:101D3000304680230F221DF065FC1D23114977607A
:101D40003046B3601EF0A4F897E70220FEF744FD8A
:101D500000287FF471AF0320FEF73EFD00287FF4DA
:101D60006BAF014680230C2230461DF0C3FC69E7AF
:101D7000881E0020F0150020081E002068CC0200FC
:101D80007CCC020090CC0200B8CC0200A4CC0200B3
:101D900008B51EF0F1FABDE80840024A02490348BE
:101DA00021F08CB8A89DFF1F9919000058CAFF1F89
:101DB00000F1FF3C00B50CEB4C1C00F1010E71452D
:101DC000D4BF8C44F444104951F82C107AB14FF030
:101DD000FF3C0CFA00F021EA0001B2FBFEF00EFB22
:101DE0001022AEEB020021FA00F091400143B3FB58
:101DF000FEF001220EFB103302FA03F30B4214BF74
:101E0000104600205DF804FBD0CC020000B58646E9
:101E10000EF1FF3300F1010C03EB43130D48614554
:101E2000D4BF5B18634450F8230082B1B2FBFCF3CB
:101E30000CFB13224FF0FF3303FA0EF320EA0300EA
:101E4000ACEB020C20FA0CFC90404CEA00005DF870
:101E500004FB00BFD0CC0200002301220270C0F8B6
:101E60002431C0F82831C0F82C31C0F8303100F1ED
:101E700020024FF4604303F1800122F8023F8BB24D
:101E8000B3F5005FF7D17047F0B50478002C7BD034
:101E9000D0F82C51891AA1F54064A54207DCD0F88E
:101EA0003011A14203DBD0F8281199426ED00FFA0D
:101EB00084FC00F1280E7B2108E03EF9167067458E
:101EC00001F1FF31D4BF05F1020E314621F00105C9
:101ED0004E1000297544A1EB0601EEDC00F1220151
:101EE000AEEB010E4FEA6E0CACF1020C4EF34F0E4E
:101EF0000FFA8CFCE6454CDB4FF0FF374FF4804681
:101F000000EB4C010CF10105B1F92210611A002916
:101F1000B8BF494209B2B142B8BF67460FFA85FC63
:101F2000B8BF0E46E645EBDAB9B27D1E7C1C1944FB
:101F300009B27E29A8BF7E21012900EB470700EBEB
:101F4000440400EB4505B8BF0121B7F92260B4F99C
:101F500022406D8C00EB4101C6EBC606B1F92210A0
:101F6000C0F8283104EBC4040923344415FB03638F
:101F700024111B11C0F83041C0F82411C0F82C31D5
:101F8000114401F54060F0BD0846F0BDD0F82411C1
:101F9000F6E700246FF001054FF0FF374FF6FF71B1
:101FA000C5E700BF002906DB7F2902DDB0F920016B
:101FB000704700EB4100B0F92200704770B509226C
:101FC0004FF46643002508260260036141F2133294
:101FD000132304468376856085808581456102836D
:101FE000C5830584856580F85450C0F8E4503246B6
:101FF0002946223022F0D6FB3246294604F12A0037
:1020000022F0D0FB2946102204F1340022F0CAFB52
:10201000C4F8F050C4F8E050C4F8DC50294604F18C
:102020005C008022BDE8704022F0BCBB494B83FBC2
:1020300000230344484A4FEAE07CCCEB233C02FBFC
:102040000C030B291AD8DFE801F0212B353F495347
:102050005D677119067B41495A1151F8220001321E
:10206000400051F822205200121A03F01F0302FB15
:1020700003F300EB531000FA0CF0704737495A1184
:1020800051F82200013251F82220EDE733495A116C
:1020900051F822000132C00A51F82220D20AE3E7A7
:1020A0002E495A1151F822000132400A51F82220DB
:1020B000520AD9E729495A1151F822000132C009C0
:1020C00051F82220D209CFE724495A1151F82200B1
:1020D0000132800951F822209209C5E71F495A119F
:1020E00051F822000132400951F822205209BBE781
:1020F0001A495A1151F822000132000951F82220E0
:102100001209B1E715495A1151F822000132C008ED
:1021100051F82220D208A7E710495A1151F822009D
:102120000132800851F8222092089DE70B495A118C
:1021300051F822000132400851F82220520893E75A
:1021400006495A1151F822000132800051F822202C
:10215000920089E7D1000DD050ECFFFF7CEF020028
:102160002DE9F04F044608461146A26D8BB00132AE
:102170009DF85080A26523B194F85430002B40F0B4
:102180003A8121B994F82130002B00F0C980102247
:10219000002104F1340022F005FB002384F82130F3
:1021A000A28BADF82220A27FB4F90C008DF8252077
:1021B000E27F8DF8262094F820208DF827204242D7
:1021C000079222690492A28AE17E05920023A288E6
:1021D000B4F802C003908DF821108DF820308DF8EE
:1021E0002430069204F1300A04F1200504F1470B73
:1021F0004FF0010E01934FF6FF790294039E02986F
:102200000EF102020EF0030102F00302002E00EBB9
:10221000410100EB42025AF8040F78DD4A8C12FBB0
:102220000600BE494FEA1C32060E02EB0222771C62
:102230000A4402F20118915DD25D20F07F40521AEB
:10224000090200FB02F2A1F5004101EB224118F85E
:10225000062018F80780A8EB0208120200FB08F815
:10226000A2F5004202EB28420CB212B24FEA0C185F
:10227000121B1FFA88F808FB02F2121412FA81F2FC
:1022800011B2A74C6981A65DE75DBF1B360201F55F
:10229000004100FB07F7A6F50046091206EB2746AA
:1022A00092B225F8026F0BF8011FA2F500415BB353
:1022B000029AB2F92A2002F500421A419A404A4095
:1022C00092B2069B01999C442B8DA9EB030301FB61
:1022D00003F3A9EB232302FB03F3049A1B1402FB71
:1022E00003F3059ABEF1040F02EB23431FFA8CFCA3
:1022F0006B8512D009AB13F80E30019308AB13F8BD
:102300000E300EF1010E79E782F40042D9E7B2F9FE
:102310002220079901FB020083E70BB0BDE8F08F94
:1023200094F85430002B7ED12188FFF77FFEB8F15E
:10233000FF0F0AD0B8F1020F95BFC8F10308A8F14A
:10234000020820FA08F000FA08F094F818C0656B4B
:1023500094F8199094F81A80DFF8C8E16064634635
:102360000544132B65638DF825C08DF826908DF8F4
:1023700027800DF1250104F1340204F1400610D04C
:102380005EF82330A0FB03731B0243EA1763576810
:102390003B4442F8043F964209D011F8013F132B09
:1023A000EED15368034442F8043F9642F5D1A26847
:1023B000002A3BDBD303BCF1130FC4F8EC304FD041
:1023C000A26BD4F8F010521A1A44B9F1130FA26399
:1023D00043D0E26BD4F8F010521A1A44B8F1130F3C
:1023E000E26335D0226CD4F8F010521A1A442264F9
:1023F000C4F8F030D4E64C4B9A4211D8A62A31D812
:10240000D4F8E43003EB43052A4492089A4207D0FB
:102410004FF0FF33C4F8E420B3FBF2F3C4F8E83024
:102420000023A365ADE6D4F8E80080E7030C04F1CF
:10243000380002FB03F307C803EB4305C01AA1EB06
:102440004301521BD4F8EC30A063E1632264CFE770
:1024500003EB43022A442264CAE705EB4302BDE7CB
:10246000EA18B2E7D4F8DC50029504EB85034FF08C
:10247000000BCDF804B0DA6505F1400C05F13F0A18
:102480004FF0010905F1200E0392554662460027E0
:1024900002F01F0605F01F0304EB860604EB83031E
:1024A000F66DDB6DF31A002BB8BF5B42B3EB161F62
:1024B00038BF013702F1FF3238BFFFB2964505F150
:1024C000FF35E5D15F4528BFCDF8049009F101093A
:1024D0005FFA89F928BFBB46B9F1080F0AF1FF3A44
:1024E000D3D1029D019B039A013505F01F05EB1A1C
:1024F00003F01F0304EB8303C4F8DC50DD6DD4F854
:10250000E030C4F8E050D31A002BB8BF5B42B3EB05
:10251000121F38BF2A46D4F8E43077E768DD02009E
:1025200079EE0200CCDC0200D70802002DE9F0436E
:102530004FF07F46B6FBF3F6002B39D04FEA113E41
:1025400003F1FF3C1B4B0EEB0E2E09019E448DB296
:102550000EF201140020010E4F1C1EF801301EF86F
:102560000780615CE75D20F07F49A8EB03087F1AD4
:102570001B02090209FB07F709FB08F8A3F5004352
:10258000A1F5004103EB284301EB274109B21FB23B
:10259000C91B9BB205FB01F1A3F500430CF1FF3C05
:1025A00003EB2143BCF1FF3F22F8023B3044D2D180
:1025B000BDE8F08368DD0200014B1868704700BF7A
:1025C000C4D9FF1F704700BF014B18684000704717
:1025D000ACD9FF1F014B1868704700BFC8D9FF1F57
:1025E000014B186840007047C0D9FF1F014B1868A5
:1025F00080007047BCD9FF1F704700BF014B1868AF
:10260000704700BFB0D9FF1F014B1868704700BF6B
:10261000A8D9FF1F014B1868704700BFCCD9FF1F16
:10262000012802D1014B00221A717047B8FBFF1F2D
:10263000014B186880007047B4D9FF1F014B186820
:1026400080007047B8D9FF1F036818470B68036004
:10265000704700BF0B680360704700BF704700BF42
:10266000704700BF704700BF704700BF704700BF92
:10267000704700BF704700BF704700BF704700BF82
:10268000704700BF704700BF704700BF704700BF72
:10269000704700BF704700BF704700BF2DE9F04F83
:1026A00085B0504BDFF840B1504F02934FF0000A15
:1026B0004F4A0AEB4A0302EBC303D3F81854052D23
:1026C0004FEA45060BEB450100F08980C5F1050492
:1026D0006400444822461DF0CDFE029B181925B126
:1026E000B21E023259461DF0C5FE029BDFF8F4808F
:1026F0001C885BF80C3CA40A4FEA4A114FEA537954
:1027000084F03F0409EB01054B4622463846039509
:102710001CF0F0FF03232246294638461DF040F8FE
:10272000CDF8088038F8023F9B0A264683F03F0424
:1027300029462246384608231CF0DCFFB44238D034
:10274000A6EB0403A4EB060C03F101032246294681
:102750003846A1BF29460CF10103324638461DF028
:102760001FF8244B434505F10805DBD15D88039E26
:10277000AD0A85F03F05022218360092C9F1080320
:102780002A46314638461CF043FEA54220D017DACF
:10279000631B01332A46314638461DF001F80AF121
:1027A000010ABAF1040F0BF1180B81D105B0BDE895
:1027B000F08F02232246294638461CF0F1FFD0E76D
:1027C0002B1B01332246314638461CF0E9FFE6E771
:1027D00022463146032338461CF0E2FFDFE701487A
:1027E00008227EE76CE8FF1FECDDFF1F081E0020BB
:1027F000D0D9FF1F72E8FF1FFEF722BFFFF764B8B2
:10280000D0F84835F0B503EB4303C3EBC3039B009B
:10281000DBB203F18043D5B001333FA900EB830065
:10282000012201E001320131A2F11103072B50F81E
:10283000044F40F2B080542A0C70F3D13FAC0FCC5F
:1028400010AD0FC50FCC0FC594E80300002685E836
:1028500003000DF13F040DF1670E324633460127A8
:1028600005E0581C0DF80310C3B2744514D0072BB3
:1028700014F8011F67D00806F3D507FA03F03044B7
:1028800003F1010C1D46C6B25FFA8CF301F07F0123
:10289000342A0DF80510E8D902F5A8716944551CD1
:1028A000EDB201F8946CABB11A440DF1FF34D2B221
:1028B0002946084601F5A8710DEB010614F801CF71
:1028C00006F894CC411C9042C9B2F2D12B4413F0CB
:1028D000FF055BD02A462FA920A81DF0CBFD1FAE17
:1028E0001F950FCE0DF1BC0EAEE80F000FCEAEE877
:1028F0000F000FCEAEE80F0096E80F00274F8EE8CE
:102900000F0004244FF0000C00970CF5A8720DEB9B
:10291000020CE01E1CF8901C0DF804105FFA80FCFD
:10292000621CAC45D4B2F0DB2B1D691DDBB2C9B211
:10293000F7200DF80300002268461EF0BFFD1EF0D0
:1029400023FE55B0F0BD02F5A8706844531C083250
:1029500000F8946CDBB20DF1FF30D2B203F1010C40
:1029600003F5A8730DEB03055FFA8CF310F8016F04
:1029700005F8946C9A42F1D10D0603D40025012389
:102980002E4685E701231E4600257FE7034B009373
:1029900005210423CCE718340C7043E7F07D624D29
:1029A00000B1704708B50248FFF72AFF08BD00BF15
:1029B000B8DEFF1F10B504461DF0D2FB204610BD47
:1029C00090F8E73010B500F5CC7CB3B1012B10D1F5
:1029D0002122C36B80F899211B21202280F89811B5
:1029E00080F89A21032B00F27881DFE803F0578703
:1029F0008D930023C0F8943110BD0A22C36B80F878
:102A0000992106210F2280F8981180F89A21032B32
:102A100000F26081DFE803F03C3630020E2300F55F
:102A2000CE7180F89B31046D1423072C0B7000F3DA
:102A30001F8100F0458115234B70436D052B00F07D
:102A400045818B1C1A464FF0040E017802F801EB09
:102A50004FF0070E83F801E04FF0080E83F802E014
:102A60004FF0000E83F803E0042900F24181DFE813
:102A700001F0A394CFBAA7000D2300F5CE7180F822
:102A80009B31D0E70C2300F5CE7180F89B31CAE76B
:102A90000B2300F5CE7180F89B31C4E70B2300F5C2
:102AA000CE7280F89B31016D26230729137000F345
:102AB000BE8000F0FF8024235370436D052B09BFB7
:102AC0002523941CD41C937023464FF01A0E0278D1
:102AD00003F801EB4FF01D0E84F801E04FF01E0EDD
:102AE00084F802E04FF02C0E84F803E0042A00F290
:102AF000FD80DFE802F04E4A3B1515000C2300F57F
:102B0000CE7280F89B31CEE70D2300F5CE7280F8AF
:102B10009B31C8E70E2300F5CE7280F89B31C2E7E7
:102B20002722DA7028221A7129225A712A229A71D0
:102B30002B22DA7135221A72372436225A729C728D
:102B400003F10B02072906DC1346022103F8021BDE
:102B5000012151701A462C21131D11705170917072
:102B6000D170A3EB0C03C0F8943110BD2722DA70AA
:102B700028221A712B225A7135229A713724362253
:102B8000DA711C7203F10902DCE71F241A1DDC70E4
:102B9000D8E71C241A1DDC70D4E70921131DD1705D
:102BA000072CDEDC0321012219705A700233A3EBDB
:102BB0000C03C0F8943110BD0521131DD170EFE74F
:102BC0002D23D3702E2313712F2353713023937130
:102BD0000523D3713123137233213223537291723F
:102BE00002F10B03DCE72D23D3702E2313712F2367
:102BF0005371302393710523D37131231372322320
:102C00005372342133239372D17202F10C03C7E75C
:102C10002D23D3702E2313712F23537130239371DF
:102C200034210523D371117202F10903B8E74FF083
:102C30002C0E047882F801E082F804E04FF01D0EBB
:102C400082F802E04FF01E0E931C82F803E0042C81
:102C50004AD80FF2080E5EF824F000BF932B000054
:102C60008B2B00006D2B0000212B0000212B00007E
:102C70004FF0160E037881F801E04FF0070E81F84F
:102C800002E04FF0080E81F803E04FF0000E8A1CBE
:102C900081F804E0042B23D80FF2040E5EF823F031
:102CA000B92B00009B2B0000112C0000E72B00002B
:102CB000C12B0000222353702323D41C937003E7FD
:102CC000172318224B708A70CB1CBBE61922CB1C31
:102CD0008A70B7E600F29B11A5E600F29B12E2E6CD
:102CE0004B1DA3EB0C0385E6053234E7221D2BE7D1
:102CF000043357E7704700BF704700BF704700BFFD
:102D0000704700BF704700BF704700BF704700BFEB
:102D1000704700BF704700BF704700BF704700BFDB
:102D2000704700BF704700BF012838B511D002D9E5
:102D3000023801281CD80F4B0F481B684FF46972EA
:102D400002FB0300002380F8E730BDE83840FFF7BE
:102D500037BE0A48074D038F4387002421462C7154
:102D6000EC62FEF7A5FEAC6485F8684085F86A4021
:102D700038BD00BFB8140020700D002058CAFF1FD6
:102D8000012800D0704770B5094E0A4D338F738704
:102D90000024214630462C70FEF78AFE338F6C618A
:102DA00085F8344085F836407387EC6370BD00BF0A
:102DB00058CAFF1FACEAFF1F012800D0704738B582
:102DC0000748084D038F4387002421462C71FEF7E6
:102DD0006FFEAC6185F8384085F83A4038BD00BFD9
:102DE00058CAFF1FB0FDFF1F012800D0704738B53B
:102DF0000748084D038F4387002421462C71FEF7B6
:102E000057FEAC6185F8384085F83A4038BD00BFC0
:102E100058CAFF1F10F0FF1F2DE9F8434FF00009BB
:102E2000524C00264D464FF0FF085149A4F12407AB
:102E30005FFA89FCA4F12803002201E051F8182F61
:102E400043F8042F9C42F9D11622002184F886C051
:102E500004F14C00A560E560256125756575A561E7
:102E6000E6616666E566256784F86A50656784F8FA
:102E7000685084F86B50A4F87C8084F87E50A4F8E5
:102E80008050A4F8825021F08DFC2C22002104F106
:102E9000200021F087FC0322012002210823B9F140
:102EA000030F84F8C32084F8C05084F8C10084F86C
:102EB000C21084F8C43004F1C0021DD004F1C7036D
:102EC0004FF0090C9B1A04F1940084F8C5C084F8F3
:102ED000C6C0C4F8BC30C4F888502822002109F1CB
:102EE0000109F03421F05EFCB9F1040F44F8646C80
:102EF000C7F8B45099D11CE0042104F1C9039B1A0E
:102F00000620052284F8C510072184F8C62084F81D
:102F1000C70084F8C8102822C4F8BC30002104F18E
:102F20009400C4F8885021F03DFCC4F88C60C7F8C8
:102F3000B450104BD3F8D813002200240025C3E965
:102F4000FA450020032401399A819A73C3E90621C6
:102F5000C3E90822C3E900221C611A75C3F8F023F3
:102F6000C3F8F4039A60BDE8F88300BFBC090020F1
:102F7000703A0300700900201149124B10B500206F
:102F80000224142208700871CA6048618C600C61C8
:102F90000D4A03F15400402101E052F8181C43F897
:102FA000041F834202F11802F7D1084C04F15800C3
:102FB000FFF704F84FF44073A4F84C3110BD00BF84
:102FC000B8FBFF1F54FAFF1F903E030058FAFF1F83
:102FD00010B5114B114C0022022009211A701A71F0
:102FE0009860D96018615A610D49234604F12800A0
:102FF000802201E051F8182F43F8042B8342F9D1C5
:10300000084800211BF08EF8064801211BF08AF8C1
:10301000002384F8A83010BD40FAFF1F80F9FF1F7D
:1030200080390300B0F9FF1F01282DE9F0412DD0B0
:1030300002D90238012827D81A4C002604F57078E6
:103040000025FF27162200212046A562A66165778C
:10305000A577278684F83250A586E5862587E56220
:10306000E57744F8306C04F8385C04F8375C44F8D1
:10307000345C21F097FBA4F12C002C220021F034C9
:1030800021F090FB4445DDD1BDE8F081064C0025E0
:1030900025751BF015FF054B25601A8F5A87BDE873
:1030A000F08100BF080A00207009002058CAFF1FE5
:1030B0002DE9F84F33490123002003E00A2B08D003
:1030C0000133DBB25A1E032A41F8040FF6D8886296
:1030D000F6E72D4FDFF8B4A0DFF8B490C7F8640529
:1030E00042F6E0620D23C7F8D02587F8680587F817
:1030F0005005C7F85405C7F85835C7F85C05C7F838
:103100006005C7F83009C7F8340907F5B16507F657
:103110005E1601244FF0FF3B05E0FEF797F80A2CFE
:103120001AD004350134601E00210328C5F8B0B35D
:10313000884626F8021FF0D8DAF80030C5F8F4B354
:10314000162202FB0033A6F84C10DB88296083F3BB
:10315000100349F82430E4E70E4987F874893824CD
:103160007F20A1F1380353F8042F02B91860994267
:10317000F9D15434B4F5C47F01F5A871F1D1BDE89B
:10318000F88F00BF4CE4FF1FB8DEFF1F64C4FF1FB1
:1031900064C4FF1FD4DFFF1FF0B590F9263190F80B
:1031A000E220022B0646D9B25ED0032B64D0012B5D
:1031B0005ED0C56A90F8400012B1334B1B781944B9
:1031C00000285DD0314A06F5A87302EB411203EBEB
:1031D000800432F9021F43F8041F9C42F9D106F51E
:1031E000AA742746AAB24FF0000C4FF6FF7142FABC
:1031F0000CF3DB0758BF44F82C100CF1010C6045B0
:10320000F5D1A64600206FF040450CF1FF33834214
:1032100017DD0CF1540306EB830304E0B8BFC3E9E8
:1032200000129E450DD0196853F8042D9142F5D136
:103230000CEB05029E4554F822205A600CF1FF3C2D
:10324000F1D1013060450EF1040EDEDB0CF180435C
:10325000013B4FF6FF7257F82330934208BF0CF141
:10326000FF3C86F84EC1F0BD456B90F84800A3E7DF
:10327000056B90F844009FE7856B90F84C009BE746
:1032800006F5AA778446E1E77CA602008EC8FF1FF8
:10329000012838B51AD002D90238012815D8254B93
:1032A000254C196A2548C3F8744408220229C3F83A
:1032B000780483F87C2418D003292DD0012921D04B
:1032C00009211F48C3F87014C26038BD1D481C4D49
:1032D000038F4387002421462C71FEF7E9FBEC6243
:1032E00085F84C4085F84E4038BD41F210110D2252
:1032F00040F60E70A3F8801483F87D24A3F87E04B2
:103300000E21DEE70A2140F60B4283F87D14A3F874
:103310007E240C210B22D4E70B4AC3F8802441F20F
:1033200013411220A3F87E1483F87D040F2210218C
:10333000C7E700BFD0D9FF1F020301040706050934
:1033400060DEFF1F58CAFF1F151617182DE9F84F2A
:10335000824B834F834A844D844CDFF814B2DFF8EC
:1033600014A23A634FF0FF3000210026C3E90001A8
:10337000C3E90201C3E904017F49804B3E60372065
:10338000F8603E71BE603E617E61FE62B963796342
:10339000BE873E647E6487F83E60BE64FA647B65E7
:1033A0003B65A7F85860FE653E667E66A7F86860D4
:1033B00087F86A60FE664FF002094FF001082A1F85
:1033C000002354F8231042F8041F0633B3F5A87FF6
:1033D000F7D100210C2205F5A07021F0E3F9E36993
:1033E00085F8E360002BD8BF236A85F8E46009F014
:1033F000010285F8E2206A6885F8E560D8BF03EA33
:10340000E3739A4205F5E87018BF6B6085F8E760D2
:10341000FEF722FD05F54170FDF732FF05F54D7011
:103420001AF06CFB6B69564A85F8213102EA832356
:103430004FF0FF32C5F80421C5F808216A6885F805
:10344000EC202A69C5F80C3185F82021EB6B2A6D38
:1034500085F83B2142F21072C5F8F420DAB2022A54
:1034600085F8EA8085F8EB80A5F81661A5F810616B
:10347000C5F81861C5F81C61C5F8F060C5F8F860BA
:1034800085F8ED6085F8EE6085F83A6185F83C6175
:1034900085F8316185F8126185F8146185F813614A
:1034A00085F8222157D0032A53D0012A4FD0EA6A47
:1034B000A5F82421DBF80020DAF80010DAF804007F
:1034C000B2F804C085F830615BB285F8263185F822
:1034D0002731138885F83281A3EB11235188A1EBA2
:1034E00010210B44DAF80810D088ACEB11221344F9
:1034F000DAF80C20A0EB122018441CF0D1FE402278
:10350000002105F5AA70C5F8306385F84C6185F88F
:103510004D6185F84F6185F8508185F8516185F8D6
:10352000528185F84E8121F03DF92846FFF748FA8F
:10353000B9F1010F05F5697506D10B4BD3F894313C
:10354000013BFB60BDE8F88F4FF0010937E72A6BBC
:10355000AEE7AA6BACE76A6BAAE700BF90F8FF1F63
:10356000B8140020F8F10200700D00209CA5FF1F88
:10357000C8C2FF1F44C4FF1F70C8FF1F90C9FF1FB0
:1035800000FCFF030378012B0AD0022B00D0704708
:103590004388022BFBD1244B012283F8792070470A
:1035A0004388013B072BF2D801A252F823F000BF59
:1035B00009360000F13500008F350000DD350000D0
:1035C0008F3500008F3500008F350000D1350000A9
:1035D000164A137983F0010313717047124B9B68ED
:1035E000002BD4D1114A1178D9B901231370704737
:1035F0000D4B9A68002ACAD11968A1F1200282F302
:1036000008029142C3D00AE0074B9A68002ABED153
:10361000196801F1200282F308028A42B7D01A60C9
:1036200070471370704700BF58FAFF1FB8FBFF1FA9
:103630002DE9F04F002089B0FDF7CEF828B9012020
:10364000FDF7CAF8002800F0B380634880230C22FD
:1036500000211CF075F8604E604D6149022430462F
:103660007460B4601CF014FC2988D5F8AC300131CA
:1036700009040912013901EB0311304681F31001ED
:1036800009121CF08BFA4223564973603046B4602D
:103690001CF0FEFBA988D5F8B030534D0131090468
:1036A0000912013901EB0311304681F310010912AF
:1036B0001CF074FA29780B2300930022402389011F
:1036C00030461BF09FFF2B696C692A7903931C1B02
:1036D000E31C079206934FF00F08444BDFF8F8B055
:1036E00004EB440503EBC50504F180473B4B013F68
:1036F00003EB8707069BA342B9462DDB08F1020ABC
:103700000223E968C6F808A05846736059F8047F98
:103710001CF0BEFB7E2203997260079A2B69C6F8E3
:1037200008A0A14218BF0022611C08F10C0A0491F4
:103730000592002B34D053F8271058461CF0BCFBE0
:10374000059A62B9039BA34205F118051DD0049C9C
:10375000069BA342D046D1DA09B0BDE8F08FAB6832
:103760006A689F4222D0224B591F974218BF0B46CE
:10377000009308F1010205234F2158461CF09CF8E4
:10378000039BA34205F11805E1D10B2342460093A8
:103790001148049C80230021D0461BF033FF9CE796
:1037A000394658461CF03EFB059ACAE7114BDFE745
:1037B0000220FDF711F800287FF447AF0320FDF742
:1037C0000BF8014600287FF440AF034880230C2209
:1037D0001BF090FF3FE700BF081E002080F9FF1F8D
:1037E000FCF1020004F2020040FAFF1F80390300DE
:1037F000DDA40200E2A402004388202B30B421D0D3
:10380000402B01D030BC70472E4BB0F904101A7910
:10381000002A35D11A699C680A44A24248DBD8685C
:103820008242A8BF024658691A610029084441DB58
:10383000012804DDD8688242B4BF0220032030BCD6
:1038400058617047204B9A68002ADBD11D4A1278D4
:10385000142AD7D81D4C53F82250B0F9040002EBBB
:10386000420104EBC10428446168884203DBA1687B
:103870008142A8BF01468D42C4D043F82210C1E75F
:103880001A69142ABED8114C0F4B02EB420004EB0C
:10389000C00453F8225060682944814203DBA068C9
:1038A0008842A8BF08468542ACD043F82200A9E769
:1038B0002246B8E70128C2DC9442ACBF00200120B8
:1038C000BDE700BFB8FBFF1F58FAFF1F783E03009B
:1038D0004388202B21D0402B00D070472B4B1A79E6
:1038E00030B4002A2FD1B0F904001A699C68024450
:1038F000A24242DBD9688A42A8BF0A4659691A61C6
:10390000002801443BDB012904DDD9688A42B4BFA9
:1039100002210321596130BC70471C4AB0F90430C0
:1039200012781B493AB14A68134483F308039A4258
:10393000D3D04B6070470A68134483F308039A425C
:10394000CBD00B6070471B69092BE4D8114AB0F942
:1039500004100F4D03EB430002EBC00055F8234069
:1039600042682144914203DB82688A42A8BF0A462A
:103970009442D0D045F82320CDE72246BEE7012966
:10398000C8DC9442ACBF00210121C3E740FAFF1F0D
:1039900080F9FF1F803903002DE9F84F00230768E5
:1039A000058980F8BE3080460E46CAB91EB9D8F8DF
:1039B000C0309F420FD0C8F8C070A8F8C450384635
:1039C000FDF7DCFF4268B0F900402ABB002388F80D
:1039D0005031BDE8F88FB8F8C430AB42EBD1F8E70E
:1039E00038461446FDF7CAFF43684FF6FF729A4007
:1039F000D243002C02EA050192B262DB94FBF3F0A1
:103A000003FB10441B1B41FA03F3A1400B439BB281
:103A100063EA02039DB2C9E7002CD7D04FF6FF73CB
:103A2000934035EA0303D1D001234FF0000988F811
:103A3000503108304B4615F0010F4FEA550507D0BD
:103A400008EB490130F91360A1F8526109F101094D
:103A500001339342EFD14FF0000C204E08F5A977C7
:103A600008F5F87E08F5F97509F1FF3A08F51C78B4
:103A7000614647F6FF70AAEB010337F9112037F9C9
:103A800013306FEA0C0B04FB0B3304FB0C22834254
:103A9000A8BF03468242A8BF0246B342B8BF33461E
:103AA000B242B8BF32462EF8022F0131494524BF39
:103AB0000CF1010C0021F04525F8023DDBD1BDE8F9
:103AC000F88F604290FBF3F403FB14001B1A01FA19
:103AD00003F341FA00F003439BB299E70180FFFF33
:103AE000F0B5984B5A787D2AC5B0054600F0B480F1
:103AF00000231A4695F868152A71C1B1D5F8302906
:103B0000914805EBC2010132C5F83029652AC1F898
:103B100008064FF00000A1F80C36A1F80E0600F0E0
:103B2000A480063A002AC5F83429C0F29180D5F85D
:103B30004835D5F86415542202FB03F3C1EBC101EB
:103B4000D5F85C25C5F8543503EB4101521A002124
:103B500085F85015991803F10D008B42C5F85805EA
:103B600013DC8142A8BF0146002AC5F85C1511DBB1
:103B7000012A03DD8842CCBF022203220023C5F8BC
:103B80006025C5F8643545B0F0BD1946002AC5F872
:103B90005C15EDDA8B42ACBF00220122EEE7002B70
:103BA000CCBF1E4601262FAC3246214620A81CF071
:103BB00061FC324620A920461CF05CFCD5F8483553
:103BC000624E03EB4303C3EBC3034D219A002971FB
:103BD000D2B20DF1BB010DF20F1EA1F10F031B1BA1
:103BE00011F801CF072B98BFACF1180C02D9B2F530
:103BF000A87F10DC02EB420006EBC00005EB820759
:103C00004368634503DC83686345A8BF6346B868BF
:103C1000984218BFBB60714502F10102DDD195F8F1
:103C20006835002B83D0D5F83039474805EBC302FF
:103C300001334D21652BC5F83039C2F80806C2F8AA
:103C40000C1668D0063B002BC5F83439BFF66FAFB1
:103C50000023C5F834396AE79A78622A7FF448AFBE
:103C6000DA784D2A13D013B244E705F5C16405F69E
:103C7000281620460834082221461CF0FBFBA642E9
:103C8000F7D1D5F83029013AC5F8302949E703338F
:103C90006946002404E0C4B23C2C01F8012B07D093
:103CA00013F8012FF72A04F10100F4D1002C47D0BA
:103CB000002C6946CCBF2246012210A81CF0DAFB7A
:103CC00000230DF13F069C4619460DF13C0E17E00E
:103CD00010F0010F03F1010003F588736B4418BF66
:103CE00047F0800703F8547CC3B201313D2B01F04B
:103CF00007013FF454AF023AA2EB0E0294421CDDDE
:103D00004A1E4CFA02F0324616F8017F0029DFD134
:103D1000BC460121EFE705F5C16405F628162046EB
:103D20000834082221461CF0A5FBA642F7D1D5F89D
:103D30003039013BC5F8303984E7002B7FF42FAFD1
:103D40002FAC3BE7E81F002001410500E819030004
:103D50002DE9F04F002089B0FCF73EFD28B9012085
:103D6000FCF73AFD002800F01F819F4880230C22B9
:103D700000211BF0E5FC9D4E9B4CB368022565605D
:103D8000A560002B40F00981D6F89C001FF0DEF9F9
:103D900091A3D3E900231FF053FA91A3D3E90023A1
:103DA0001FF078FB1FF07EFC96F84D31FF2B80460C
:103DB00040F091808E498F4D8F4F40461FF082FF1B
:103DC000002876D12B7803EB430307EBC30341466E
:103DD0004FF07E50D3F80C801FF076FE1FF0D8F91C
:103DE0004246CDE9000185497F481CF081F82B79D6
:103DF0002A6905936B690292D31A1D460333069311
:103E000005F18043013B06EB830303934FF0110858
:103E100005EB450307EBC30746460BE0029BAB42AD
:103E20003ED0069B0135AB4206F10C0607F11807A0
:103E3000C0F29D80B31E029A0793059BAA4218BF49
:103E400000230493039B032D53F8048F039350D056
:103E50000223F96864486360A6601CF019F83B69A6
:103E6000A6607E226260002B3ED053F828105E4888
:103E70001CF022F8049B002BD0D0BB687A689845D0
:103E800078D05F4B591D904508BF0B4600935648AC
:103E90000523721E5A211BF00FFD029BAB42C0D1BD
:103EA000B21E0B2300935048802300211BF0AAFB75
:103EB000B7E72B7803EB430307EBC3034046D3F884
:103EC0000C801FF065F94246CDE900014D49464896
:103ED0001CF00EF88BE74C4B00932A4604237A2102
:103EE00020461BF0E9FC65E73F4841461BF09AFF7E
:103EF000C0E74FEA08214548454A01F47F412023A5
:103F0000FEF714FB424906F1060B5F2001F1400A5F
:103F10004FF00109AC4631F8023B2568ABEB533357
:103F2000DA1000EBC21203F0070315F802E009FAF9
:103F300003F343EA0E035145AB5400F10100EAD10B
:103F400002232948334963606546A6601BF0A0FF41
:103F50005723254863604146A6601BF063FF049B1E
:103F600053B9029B032B7FF45CAF079A99E709B022
:103F7000BDE8F08F284B89E7B8F1FF0F27D0204B21
:103F80005A1DB8F1000F08BF1346009316480523C9
:103F9000721E5A211BF090FCE3E72049164F154D85
:103FA00020461BF075FF22E70220FCF715FC0028D5
:103FB0007FF4DBAE0320FCF70FFC014600287FF402
:103FC000D4AE094880230C221BF094FBD3E6124B9D
:103FD000DBE700BFAFF30080000000A0AA46D0409E
:103FE0000000E0FFFFFFEF41081E002058FAFF1F0E
:103FF000CDCCCC3DB8FBFF1F783E030034F202006D
:10400000D8A4020020F20200CCA40200B0FAFF1FE4
:10401000D0FBFF1F48F20200E2A402000CF20200F3
:10402000F8B5774C2568B5B94388082B00D0F8BDA2
:104030002369226AC3EB0313190104EB03131A4427
:1040400092F80C21082A13D0092AF0D0237D83F09E
:1040500001032375F8BD0378012B1CD0022BE6D198
:104060004388022BE3D1FCF779FB00236373F8BD8F
:10407000283193F9D200207321442160FCF72EFEF1
:1040800003786373A3F10103B3FA83F35B09A360BD
:104090006560A573F8BD4388022B30D0082B4FD044
:1040A000012BC4D16768012F02D1A67B002E7ED0E0
:1040B00000260023FF22A5F8A020C5F898602B64F5
:1040C000C5F888302E871622314685F8A260C5F8DB
:1040D000A460A5F8A860C5F89C60EE6385F88D60C3
:1040E000A5F88E6005F1700020F05CFB2C223146B3
:1040F00005F1440020F056FB0023A373F8BD63686C
:10410000012BA37B45D0032B91D100260023FF2256
:10411000A5F8A020C5F898602B64C5F888302E87D4
:10412000314685F8A260C5F8A460A5F8A860C5F876
:104130009C60EE6385F88D60A5F88E601622D1E74D
:1041400000260023FF222B64C5F88830A5F8A020A4
:1041500031461622C5F898602E8785F8A260C5F80A
:10416000A460A5F8A860C5F89C60EE6385F88D6032
:10417000A5F88E6005F1700020F014FB2C2231466A
:1041800005F1440020F00EFB1E4B26601A8F5A8763
:10419000F8BD012BB7D195F838206AB395F8AA007D
:1041A00085F83930FCF796FA0223A373F8BD002393
:1041B0002B64C5F88830FF23A5F8A03016223146BD
:1041C000C5F8986085F8A260C5F8A460A5F8A86055
:1041D000C5F89C60EE6385F88D60A5F88E6005F1EA
:1041E0007000A77320F0DEFA2C22314605F144005E
:1041F00020F0D8FA2F87F8BD85F83920D4E700BF22
:104200007009002058CAFF1F4388402B30B41AD0D1
:10421000202B01D030BC7047614BB0F9042093F8DB
:104220006815002969D0D3F830190629F2DDD3F8D2
:104230003409121800F1AD8006399142A8BF114629
:10424000C3F83419E6E7564B93F85025A2B3D3F8D8
:104250005C25B2F5A87F18D803EB8201514C8D681C
:10426000B0F9040002EB420104EBC1042844616888
:1042700088424FEA820C03DBA1688142A8BF014655
:104280008D421CBF9C44CCF80810474880FB02407C
:10429000D1171044C1EBE00104296DD00329B9D135
:1042A00002F11001023253F8211053F82200884223
:1042B000B0DD43F82210ADE7B0F90400D3F85C2577
:1042C000D3F854450244A2424DDBD3F858158A4234
:1042D000A8BF0A46D3F86015C3F85C25002801443E
:1042E00043DB012905DDD3F858158A42B4BF02210A
:1042F000032130BCC3F860157047D3F8640583F818
:1043000050150244D3F84815052A4FF0540404FB15
:1043100001F1A8BF0522D3F85C45C0EBC00001EB5A
:10432000400022EAE272201AC2EBC20401EB44010F
:10433000441801F10D05A142C3F85415C3F85855AE
:1043400025DCAC42A8BF2C460028C3F85C4522DB24
:10435000012803DDA542CCBF02200320C3F860057D
:10436000C3F8642556E72246B4E70129C1DC94422C
:10437000ACBF00210121BCE7A2F10C01023253F8CD
:10438000211053F822008842BFF644AF91E70C4653
:10439000DAE7002154E7A142ACBF00200120DDE7AD
:1043A000B8DEFF1FE8190300932449922DE9F84F66
:1043B000C74AC84D002355F8231042F8041F06339E
:1043C000962BF8D1C44C22684FF0FF310023E166F0
:1043D000052A4FF00101A4F86630A4F8683084F88B
:1043E0006A1040F01E81BD484FF00008A4F87080AC
:1043F000FDF732FDE7682068E066BEB2A4F87060A1
:10440000FDF7BCFA4268B0F90050002A40F0B380D2
:10441000002384F87430B24B0025C4F8C853C4F8A4
:10442000A851C4F8C45303F16007C4F8C0534FF057
:104430000A08184643F80C5C0A220021A3F10C0676
:1044400020F0B0F9034618339F4223F8205CB56092
:10445000EFD1236AA34AA449C4F87824022B4FF071
:104460000802C4F8741484F87C2400F06981032BDA
:1044700000F05A81012B00F04F8109239B48C4F8BA
:104480007034002548F21002A36AC4F8AC5185606C
:10449000456000F50970A4F8B8214FF0FF32C4F868
:1044A000BC2184F8CC3319F0DBF8636D904AC4F872
:1044B0000024904AC4F80824013B226D8E499BB227
:1044C000A4F8FE3313440968A4F8FC334FF4803099
:1044D00013B28A4AC4F8F4030120A4F8FA33A4F80A
:1044E000F8330B8884F80C0410685668A4F80E544E
:1044F000A3EB10234888C4F80454A0EB162003440F
:104500008E88C8889168D268A6EB11210B44A0EB75
:10451000122018441BF0C4FE794B7A497A4A196379
:10452000216A9A635A636F4A6F48C4F87824052653
:10453000082202291D719D601D615D61DD629D87FC
:104540001D645D649D64A3F84C5083F84E501D6556
:104550001E60C4F8740484F87C2400F0A78003294A
:1045600000F09380012900F082800921C4F87014C2
:10457000DA60BDE8F88F002D3FF44AAF4FF6FF73C5
:10458000934027EA03039BB2002B3FF441AF012382
:1045900084F874300830434616F0010F4FEA56068F
:1045A00007D004EB480130F91370A1F8767008F1D8
:1045B000010801339A42EFD15448554F4FF0000C97
:1045C00008F1FF3A861C00F18009614647F6FF7E3C
:1045D000AAEB010304EB430304EB4102B3F9763089
:1045E000B2F976206FEA0C0B05FB0B330CFB0522AE
:1045F0007345A8BF73467245A8BF7246BB42B8BF99
:104600003B46BA42B8BF3A4620F8022F0131414535
:1046100024BF0CF1010C0021814526F8023DD7D1C1
:10462000F9E60520FDF7AAF94068E2684FF6FF7346
:10463000834022EA03039BB291B20BB941F001011E
:10464000EB6C994203DB2B6D8B42A8BF0B469A4261
:1046500018BFE3606B68052B03DCAB68052BA8BFB4
:10466000052322689A423FF4BEAE2360BBE60A21CE
:1046700040F60B4284F87D14A4F87E240C210B2212
:10468000C4F87014DA60BDE8F88F224AC4F88024B8
:1046900041F213411220A4F87E140F22102184F855
:1046A0007D04C4F87014DA60BDE8F88F41F210118F
:1046B0000D2240F60E70A4F880140E2184F87D249B
:1046C000A4F87E04C4F87014DA60BDE8F88F00BF67
:1046D000CCD9FF1F2CB2FF1FD0D9FF1F44DAFF1F18
:1046E000ECDDFF1F07060509020301047CDBFF1F49
:1046F0000300010000000101C8C2FF1F44C4FF1FE6
:1047000060DEFF1FF8F1020090C9FF1FE4DAFF1F0F
:104710000180FFFF1516171840F60B43A4F87E34EE
:1047200084F87D840C23A9E60C4BC4F88034122154
:1047300041F2134284F87D14A4F87E2410239DE6F0
:1047400041F210130D2140F60E72A4F8803484F863
:104750007D14A4F87E240E2390E600BF15161718CA
:10476000C44A2DE9F84FC44D1146002355F82300E3
:1047700041F8040F0633BA2BF8D1002355F8231063
:1047800042F8041F0633BA2BF8D16B6EBB4C0022E3
:104790009342D8BFAB6E84F894202269D8BF03EA55
:1047A000E3739A4218BF23612368052B40F07E8192
:1047B000B34D00274FF0FF3305F5A070C4F89C708F
:1047C0004FF00108C4F880306F60AE4BAF60C4F8A2
:1047D0008C30A4F87E80A4F8847084F89580A4F8C6
:1047E000967084F89870C4F88870C4F89070FCF7DC
:1047F00047FD05F10C00FDF72FFBFCF777FAD4F825
:104800000C90206884F87E701FFA89F6C4F8800046
:10481000A4F88460FDF7B2F84268B0F90050002AAD
:1048200000F0E780002D00F0E4804FF6FF73934026
:1048300029EA03039BB2002B00F0DB8084F8A880F8
:104840000830B8463B4616F0010F4FEA560607D02F
:1048500004EB480130F91370A1F8AA7008F10108BF
:1048600001339A42EFD18848884F4FF0000C08F18D
:10487000FF3A861C00F18009614647F6FF7EAAEBED
:10488000010304EB430304EB4102B3F9AA30B2F98C
:10489000AA206FEA0C0B05FB0B3305FB0C227345BA
:1048A000A8BF73467245A8BF7246BB42B8BF3B461D
:1048B000BA42B8BF3A4620F8022F0131414524BF21
:1048C0000CF1010C0021814526F8023DD7D194F965
:1048D00094100023C4F80832002940F09580226823
:1048E000A369042A14BF01221E2284F8152206227D
:1048F000934284F81822DCBF072284F81922E26967
:10490000D4BF634B634B0320052A84F8140208BF0D
:10491000082241F20210A4F8160208BF03F8012B86
:104920000B220A205A7005221870DA70042009221E
:1049300098701A71584B5948986159481862D86153
:10494000584800680138002283F8550005201A7085
:104950005A60DA601A615A619A849A62DA621A635A
:104960009A8683F836209A63DA63A3F8442083F8A2
:1049700056209A64DA641A6583F8542098650029F1
:1049800000F0B98001296ED12168A269042914BF01
:1049900012211E21062ADCBF1A2284F81922E2699C
:1049A00084F815124FF01C0184F818124FF0130010
:1049B000D4BF3749374984F81402052A41F2191047
:1049C00008BF1B22A4F8160208BF01F8012B14200F
:1049D000087015204870344A162088701820C87056
:1049E0008A1A17200871511EC4F810229960BDE878
:1049F000F88F002394F9941084F8A8300023C4F8A9
:104A0000083200293FF46BAF012993D12268A369D2
:104A1000042A14BF12221E2284F81522062B4FF0FE
:104A20001C0284F81822DCBF1A2284F81922E269D9
:104A3000D4BF174B174B1320052A84F8140208BF64
:104A40001B2241F21910A4F8160208BF03F8012B2B
:104A5000152214205A7018221870DA7016201722A6
:104A600098701A7166E74FF0FF31C4F81022996010
:104A7000BDE8F88F74E8FF1F84B4FF1F78E8FF1FBC
:104A800014E9FF1F01010100C0E9FF1F0180FFFFC2
:104A900092EAFF1F91EAFF1FACEAFF1FF8F1020044
:104AA00090C9FF1F00A5020087EAFF1F0520FCF741
:104AB00065FF4068E2684FF6FF73834022EA030314
:104AC0009BB291B20BB941F00101EB6C994203DB4F
:104AD0002B6D8B42A8BF0B469A4218BFE3606B68F0
:104AE000052B03DCAB68052BA8BF052322689A427F
:104AF00018BF23605CE62168A269042914BF012164
:104B00001E2184F8151206218A42DCBF072284F890
:104B10001922E26984F818124FF00300D4BF10493B
:104B2000104984F81402052A41F2021008BF082235
:104B3000A4F8160208BF01F8012B0A2008700B2008
:104B40004870094A042088700520C8708A1A092014
:104B50000871511EC4F810229960BDE8F88F00BF9B
:104B600092EAFF1F91EAFF1F87EAFF1FF8B5954CF5
:104B70004388256825BB202B02D0402B5DD0F8BD93
:104B80002169B0F904300B4483F30203C1EB011235
:104B90002361216AC3EB031304EB021204EB03133A
:104BA0000429D2F80821D3F8083140F381809A42D1
:104BB0007EDD013BC4E908552575A561E361F8BDBB
:104BC000402B78D0202BDAD16668B0F90470002E23
:104BD00000F08580012ED2D1A37B012B70D8002656
:104BE0001F44FF22002387F301072B64C5F8883098
:104BF000A5F8A02031461622C5F8986085F83960DE
:104C000085F8A260C5F8A460A5F8A860C5F89C6006
:104C1000EE6385F88D60A5F88E6005F17000A773CE
:104C20001FF0C0FD07F001072C22314605F14400BA
:104C30001FF0B8FD85F83870F8BD237D002B6ED0CD
:104C40002669236AC6EB061C4FEA0C12A7183B44E0
:104C5000310193F80CE102F12803BEF1090F23445E
:104C600000F082800EEB8C0C0CF10A0CB0F9040001
:104C700054F82CC03CD9544DC3F8E450881B04EBC5
:104C80000010082583F8E85090F8D20002F58672EB
:104C9000032822445CD0092083F8E90083F8EA0065
:104CA000EB33891B04EB01119B1AC1F80831F8BDE5
:104CB000013BE361F8BDA37BB0F90420012B03D9CC
:104CC000033B012B08D9F8BD63681A4482F3010342
:104CD000002A63603FF753AF0023A373F8BD95F834
:104CE000AA00FBF7EBFC00284ED16073A060F8BD72
:104CF0006044364F0EEB4E0507EBC5077D688542D5
:104D000003DCBD688542A8BF05466545B3D0881B56
:104D10000EEB800E0EF10A0E44F82E50ABE7B0F900
:104D20000410236AA0690B44834224DBE2699342A6
:104D3000A8BF1346626A236200290A441DDB012AC8
:104D400004DDE2699342B4BF022203226262F8BD2D
:104D5000042083F8E90040F20560A3F8EA00072088
:104D600083F8EC00ED339CE7D7F84CC0B0F90400B1
:104D700025756044BDE70346DCE7012AE6DC98427E
:104D8000ACBF00220122E1E7A368FF180CD4012F79
:104D900014DD0123A36022680123637392F8AA0043
:104DA000BDE8F840FBF790BCA6602268FF23637360
:104DB00092F8AA00BDE8F840FBF78CBCA760002F72
:104DC000E9D1F2E77009002000010203703A030004
:104DD0004388202B70B525D0402B00D070BDC14B2F
:104DE0001A78002A75D11C7B5A68002C40F01E816D
:104DF000B0F904109868091800F1168103EB4222FB
:104E000092F830000A2800F288810122824040F2A4
:104E1000B670024200F07C810422914280F28081CF
:104E2000996070BDAF4B1A7C596872B3DA6903EBB5
:104E3000412C62444C0292F808220C2A25D193F8A6
:104E40002C20002A6BD0DCF85810B0F9042052FA5C
:104E500081F2002AC2DD1F2A1046A8BF1F2081420E
:104E600001D0CCF858001819C16DCDB2AA42C0F2D9
:104E700063811C44236ED9B28A42AFDA202AA8BFCC
:104E800020229342AAD0226670BDB0F9042098680F
:104E90000A4482F3020200285A603DDB03EB422100
:104EA00091F830C0BCF10A0F00F20181012101FA32
:104EB0000CF140F2B674214200F0F48004218842E3
:104EC00080F2F98003EB4222D2F80422013A9A617F
:104ED00070BD1A7C002A00F0CC805968DA6903EBB7
:104EE000412422444FEA412C92F808220C2A2ED168
:104EF000226E94F858E0B0F904005FFA82FCE645AF
:104F000000F2FB800028C0F20D8103EB4121D1F8B3
:104F10000422013A9A6170BD00219960D2E7DCF861
:104F20005C309CF85810DAB29142B0F9042002D2F9
:104F3000002ABFF653AF1A44202AA8BF202222EA33
:104F4000E2729A423FF44AAFCCF85C2070BD202A4E
:104F50001DD802EBC1150C35B0F90440624853F876
:104F6000256002EB420500EBC50E3444DEF8040078
:104F700084424FEAC11504DBDEF80800A042A8BF56
:104F80002046864203D0AC180C3443F82400062A8D
:104F900001D00A2AB9D10CF130021A444FF4A060B2
:104FA000A2F8D801062082F8DA0103EB0C000CF518
:104FB000027490F848001C44002840F0888002F2F7
:104FC000DB100A229C4402709CF85820002A76D1FB
:104FD000421C1720107018205070192090701A2051
:104FE000D0701B2010711C2050710F209071102068
:104FF000D071112010721220507213209072142060
:10500000D07215201073162050731D2090731E202F
:10501000D0731F2010742020507403EB41211232F2
:10502000121BC1F8042274E72146F9E69968B0F929
:10503000040001314FEAC21C01EBC2120C322029DC
:1050400053F822503FF6CAAE274C01EB410204EB65
:10505000C20428446268904203DBA2688242A8BF6F
:10506000024695423FF4BAAE61440C3143F8212028
:1050700070BDB0F90400DA695C690244A2421CDB2D
:1050800099698A42A8BF0A46196ADA610028014470
:105090002CDB012904DD99698A42B4BF0221032176
:1050A000196270BD11F0490F01D0022107E74FF0DE
:1050B000FF31996006E70139FBE72246E4E70C225D
:1050C00042700E250D228270C570021D81E70720F7
:1050D00082F8DB0140F60810A2F8DC0102F5EF705F
:1050E0006FE700BF50F0FF1F603B03000129D7DCD2
:1050F0009442ACBF00210121D2E710442028A8BF70
:10510000202020EAE07090423FF4FFAE2066FCE6EB
:1051100012F0490F01D002227FE64FF0FF317FE607
:10512000511E7DE610442028A8BF202020EAE07010
:1051300082423FF4EAAEE9E7551C202DA8BF2025A6
:10514000A9423FF496AEC56593E600BF4288082A9F
:105150002DE9F84F05461DD0042A0ED0012A5DD155
:10516000CE4C94F86935DBB1D4F87035013383F354
:105170000203C4F87035BDE8F88F2B78022B71D08C
:10518000C64B93F86925002A64D0002283F869256C
:10519000BDE8F88F0378012B00F0B280BDE8F88FEE
:1051A000D4F84815D4F864B501F1010888F3020871
:1051B000414540F0B08040465E46542101FB00F07E
:1051C000C6EBC60600EB4606D4F85C0501FB08F109
:1051D000801BCBEBCB0601EB4601002684F8506523
:1051E000461801F10D07B142C4F85415C4F85875BA
:1051F00000F35C81BE42A8BF3E460028C4F85C654F
:10520000C0F2E181012803DDBE42B4BF02200320C9
:10521000C4F86005C4F84885C4F864B5022ABDD155
:105220002E78012E5ED0022EB8D19C4BD3F84805C3
:1052300093F86925C3F86C05411C82F0010203292B
:1052400083F86925CABF0022C3F87015C3F870251A
:10525000BDE8F88F93F8682582F0010283F868258D
:10526000BDE8F88F8E4FDFF83CA2012407F2D63B51
:105270004FF0FF3905E0FBF7E9FF0A2C1BD004379C
:105280000134601E00260328C7F8B09331462BF87E
:10529000026FF0D8DAF80030C7F8F493162202FB58
:1052A0000033814AABF84C60DB883E6083F3100327
:1052B00042F82430E3E7794B48F2080783F8746931
:1052C000002446EA0400384304F580741CF0A6F874
:1052D000B4F5805FF5D106F58036B6F5000FEFD155
:1052E0006A883BE76D4C94F86935002B00F0948098
:1052F000D4F87035013B83F30203C4F870354DE7F1
:10530000664C94F8693573BB94F8503583F001030B
:1053100084F8503542E7164604F5B16704F65E1985
:105320004FF0FF3A06E0FBF791FF0A2E00F0AB804A
:1053300004370136701E00210328C7F8B0A329F8EE
:10534000021FF0D8574BC7F8F4A31B68A9F84C10FC
:10535000162202FB0033544ADB88396083F31003C2
:1053600042F82630E4E7D4F87095D4F86C0581450E
:1053700000F03181542707FB00F007FB09F700F12B
:10538000804307F180410133013104F5AA7604EB33
:10539000830304EB810106EB800653F8040F41F808
:1053A000040F9E42F9D1D4F84835D4F86465994584
:1053B0007ED0DFF8EC803B4A08F2D63B4FF0010A82
:1053C0004FF0FF330CE0FBF741FFBAF10A0F354A0B
:1053D0004FF0FF3300F0B28008F104080AF1010A2F
:1053E0000AF1FF3000210328C8F8B0332BF8021F60
:1053F000E9D8D2F800E0C8F8F4334FF0160C0CFBF3
:1054000000E0ABF84C10C088C8F80010264980F3C3
:10541000100041F82A00DFE7D4F84835D4F8649545
:105420005F1E87F30207BB4200F0D2801D4A1E4B6D
:1054300004F5B16804F65E1A4FF0FF3B09E0FBF794
:1054400005FF0A2E174A184B00F0828008F1040865
:105450000136701E00210328C8F8B0B32AF8021FD5
:10546000EDD8D2F800E0C8F8F4B34FF0160C0CFBFE
:1054700000E0AAF84C10C088C8F8001080F31000B3
:1054800043F82600E2E74FF0000384F87439D4F8BB
:105490006465D4F848056A888FE600BFB8DEFF1F50
:1054A00040E4FF1F64C4FF1F64C4FF1F0E46A4E650
:1054B0003046C6EBC60607EB46015426C0EBC000DB
:1054C00006FB03F303EB4003D4F85C05C4F84895EE
:1054D000C01A08440023814284F85035C4F854753A
:1054E00023DC01F10D068642D4BFC1EB0603C1EBFC
:1054F0000003F91807F10D008F42C4F85805C8BF22
:10550000394617DD002BC4F85C156EDB012B03DD7B
:105510008142B4BF022303230021C4F86035C4F8DC
:105520006415002384F8693516E607F10D00C4F808
:10553000580539468142A8BF0146E3E74FF0000312
:1055400084F87439D4F86405D4F848356A88B0E72B
:105550004FF0000384F87439D4F864152E78D4F829
:105560004825542303FB02F2C1EBC10102EB4101C8
:10557000D4F85C2507FB03F3521AC9EBC90103EB0E
:105580004103002184F85015D11803F10D008B421E
:10559000C4F85435C4F8580513DC8142A8BF01464D
:1055A000002AC4F85C151BDB012A03DD8842CCBF4E
:1055B00002220322C4F86025C4F84875C4F8649533
:1055C00031E61946ECE78E42D4BF002001201FE6E9
:1055D0003A464946C5E72046FDF712F96A88A0E732
:1055E0008B42ACBF00220122E4E78F42ACBF002314
:1055F000012391E70020704738B54FF480710446CD
:1056000000201AF087FEB4F91A3000B2834203DD9D
:10561000237E83F001032376A37D4BBB237EA288E8
:10562000B4F90810002B30D1013A13B29942A3808B
:1056300092B204DA023A13B20022A3802276B4F9BD
:1056400006209A4204DD02331BB20121A380217699
:10565000D21AB2FA82F2B4F900105209E27509299D
:105660005BD8DFE801F02023262931494C4F521442
:10567000A388B4F9082001331BB29A42A380DEDA72
:10568000B4F90620A2801346E2E70132CDE7244AAE
:10569000D05CB4F9023090FBF3F203FB120000027D
:1056A000A08180B238BD1F4AD05CF2E71E4AD05CB0
:1056B000EFE71E4AD05CECE7E08910FB03F0C1176E
:1056C0001EF070FB00B2E4E7E589002115FB03F54D
:1056D0002561217520220B464FF0010C03E0494261
:1056E00049B2013A14D30CFA02F0A843F7D10B44A3
:1056F0005BB223750121F4E70D4AD05CC9E70D4A7E
:10570000D05CC6E70C4AD05CC3E70C4AD05CC0E76B
:1057100058180C30617500B2BBE7B4F90C00B8E75B
:1057200084C90200E8CB020048CB020018CA02007C
:10573000B0C502005CC70200DCC702009CC60200C4
:105740002DE9F04FAC4B1B6813F001038FB083467B
:1057500000F0FD80D0F8B011D0F8AC41D0F8B431F1
:10576000CA0742EA5402CBF8AC214FF0FF30DA0707
:10577000CBF8A80142EA5102BBF818009F4CCBF8C5
:10578000B0215B08CBF8B431225C53090BEB8303E7
:1057900002F01F0201219140D3F8AC210A43C3F863
:1057A000AC21DBF8AC31D90740F1BC80944B954D6E
:1057B0001968954B6A681B6D8C889BF86670DBF8DE
:1057C0000060C3F340430393904B18684B88A3EBEE
:1057D00012230A880989A2EB102201FB02F212139C
:1057E0000492AA68DBF80410DBF81400BBF80C5034
:1057F0000891A4EB1224DBF8102007901F3302EB72
:10580000A31253B2DBF80820069300238BF866300E
:1058100053B27F3405934BB20193241243B20992E1
:10582000009340F0C98027B9DBF86C309E4200F04D
:10583000BD80CBF86C60ABF870503046FCF79EF83A
:105840004268B0F90040002A00F0A080002C00F06F
:105850009D804FF6FF73934035EA030300F0968076
:1058600001234FF000098BF8743008304B4615F0D7
:10587000010F4FEA550507D00BEB490130F91360D2
:10588000A1F8766009F1010901339342EFD14FF09D
:10589000000C09F1FF33DFF87881CDF808B00BF187
:1058A00076070BF58A7E0BF58B760BF5CA7A614687
:1058B00047F6FF759B46ABEB010337F9112037F92B
:1058C00013306FEA0C0004FB003304FB0C22AB42E4
:1058D000A8BF2B46AA42A8BF2A464345B8BF4346A5
:1058E0004245B8BF42462EF8022F0131494524BF38
:1058F0000CF1010C0021F24526F8023DDBD1DDF868
:1059000008B046E0DDF808B042490AAB0EA853F8EB
:10591000042B82F31002984241F8042BF7D13E4B3E
:1059200001221A603D4C3E4D0BF585630BF59160ED
:1059300053F8181CA1424FF0000288BF4A1943F8DF
:10594000182C18339842F3D10FB0BDE8F08FD0F87F
:10595000A8213AB133498A422ABF521AC0F8A83165
:10596000C0F8A821DBF8B001DBF8B421DBF8AC11FA
:10597000C30743EA5103D10741EA50015208CBF86B
:10598000AC31CBF8B011CBF8B4210CE700238BF885
:1059900074309BF824300293042B00F29A81DFE8E4
:1059A00013F075016001430098018301BBF870306A
:1059B000AB427FF43EAFECE73046FBF7DFFF4368D6
:1059C0004FF6FF729A40D243002C05EA020592B2CC
:1059D000C0F2E08194FBF3F103FB11415B1A45FA3D
:1059E00003F38D402B439BB263EA02039DB2002F69
:1059F0003FF41AAF1DE700BFE4C5FF1F68C50200F2
:105A0000C8C2FF1F44C4FF1F00F00F4030C4FF1F77
:105A10000180FFFF68C4FF1FC49DFF1F59761F0050
:105A2000A689E0FFF47E1D00AB4A1268D188AB4A1C
:105A3000D268A1EB12223F3242F3C7120C2AA8BF50
:105A40000C226FF00B018A42B8BF0A4652B2029292
:105A50009BF96A200399914280F24C8101228BF8D4
:105A60006A108BF86920DBF82020022A00F0AC8154
:105A7000032A00F09C81012A00F0AC81009E069A66
:105A8000DBF81C10272EA8BF272682F30602032B63
:105A900026EAE67610B200F06B814BB2DBF8C01359
:105AA000DBF8C843C91ADBF8C0339C4238BFDBF8C7
:105AB000C813CBF8C813DBF8C8330133CBF8C833AD
:105AC000DBF8C8130139891AC9B20BEB4101531C29
:105AD0009BF86720B1F9C0110A915BB29BB2002A12
